:020000040C00EE
:100000000088FE1F010200089902000899020008FA
:1000100099020008990200089902000800000000F7
:10002000000000000000000000000000990200082D
:1000300099020008000000009902000899020008D7
:100040009902000899020008990200089902000824
:100050009902000899020008990200089902000814
:1000600099020008000000000000000000000000ED
:100070009902000800000000990200089902000897
:1000800099020008990200089902000899020008E4
:1000900099020008990200089902000899020008D4
:1000A00099020008990200089902000899020008C4
:1000B00099020008990200089902000899020008B4
:1000C00099020008990200089902000899020008A4
:1000D0009902000899020008990200089902000894
:1000E0009902000899020008990200089902000884
:1000F0009902000899020008990200089902000874
:100100009902000899020008990200089902000863
:100110009902000899020008990200089902000853
:1001200099020008B9A30008990200089902000882
:100130009902000899020008990200089902000833
:100140009902000899020008990200089902000823
:100150009902000899020008990200089902000813
:10016000000000000000000000000000000000008F
:1001700099020008CDA3000899020008990200081E
:1001800099020008990200089902000899020008E3
:1001900099020008990200089902000899020008D3
:1001A00099020008990200089902000899020008C3
:1001B00099020008990200089902000899020008B3
:1001C00099020008990200089902000899020008A3
:1001D0009902000899020008990200080000000036
:1001E0009902000899020008990200089902000883
:1001F0009902000899020008990200080000000016
:10020000DFF874D01D4880471D4C1E4DAC4209DA02
:1002100021686268A368043BA2BFC858D050FAE7BF
:100220000C34F3E7184B194CA34208DA19685A68E2
:100230000020043AA4BF8850FBE70833F4E71448D1
:1002400080471448804700004CB5000C0088FE1F12
:10025000800B00004CB5000C0088FE1F0000000061
:100260008093FE1F740000000000002000000000CA
:1002700000000020000000000088FE1F9D02000812
:1002800048020008600200086002000878020008C6
:10029000F9A3000899A30008FEE7000098B500AF95
:1002A000054A4FF0005314460FCB84E80F0002F0CC
:1002B00045FB02F0C1FB98BDC4FF032080B584B0AC
:1002C00000AF2F4BDB6803F48033002B3ED02D4B67
:1002D000DB6803F00103002B02D02B4BFB6002E034
:1002E00002F08CFBF860274B1B6803F00403002B23
:1002F00020D0244B9B6803F070631B0E0133BB605E
:10030000204B9B6803F4FE431B0A01337B601D4BAB
:100310009B6803F4FE031B0C01333B60BB683A6827
:1003200002FB03F3FA68B2FBF3F37A6802FB03F310
:10033000FB600DE0134B9B6803F07F0301333B60D0
:10034000FA683B68B2FBF3F3FB6001E00E4BFB6025
:100350000B4BDB68DBB20133FA68B2FBF3F3FB60F3
:10036000074B1B6903F001030133FA68B2FBF3F397
:10037000FB60064AFB6813601037BD4680BD00BFB6
:10038000004600501047005000366E01C0FF0320A9
:1003900080B485B000AFF8600B467A60FB72FB7AE0
:1003A0009B08DBB21846FB7A9B08DBB21A46FB6857
:1003B000043253F82220FB7A03F00303DB001946D2
:1003C000F8238B40DB4302EA0301FB68021D43F87C
:1003D0002210FB685A6FFB7A5B00194603238B409F
:1003E000DB431A40FB685A67FB683A4A934203D0E2
:1003F000FB68394A93420AD1FB681A6EFB7A0121E5
:1004000001FA03F3DB431A40FB681A6642E07B689B
:100410001B78DBB25BB2002B3CDA7B685A68FB7A54
:100420009A40FB685A60FB7ADB08DBB21846FB7A1D
:10043000DB08DBB21A46FB68103253F82220FB7A45
:1004400003F007039B00194607238B40DB4302EAB6
:100450000301FB6800F1100243F82210FB7ADB086D
:10046000DBB21846FB7ADB08DBB21A46FB681032B7
:1004700053F822207B681B7A1946FB7A03F00703A6
:100480009B0001FA03F342EA0301FB6800F110024A
:1004900043F82210FB7A9B08DBB21846FB7A9B08D4
:1004A000DBB21A46FB68043253F822207B681B78C3
:1004B0001946FB7A03F00303DB0001FA03F342EA77
:1004C0000301FB68021D43F822101437BD465DF896
:1004D000047B7047008E0248008F024880B400AF52
:1004E000034B1B681846BD465DF8047B704700BF90
:1004F000C0FF032080B400AF034BD3F8C4301846CC
:10050000BD465DF8047B70470040005080B584B064
:1005100000AF7860FFF7D2FE0B4B1B680B4AA2FBC3
:1005200003239A0C7B6802FB03F37B600023FB60D0
:1005300003E000BFFB680133FB60FA687B689A4206
:10054000F7D31037BD4680BDC0FF032083DE1B43B9
:1005500080B400AF034B5B681846BD465DF8047B72
:10056000704700BF7440005080B483B000AF786023
:10057000034A7B68D3600C37BD465DF8047B704747
:1005800074400050B0B584B002AF7860002000F035
:10059000C5F800F0DBFA7B68DB79002B0AD000F0AD
:1005A00013FB00BF00F0FEFA034683F00103DBB249
:1005B000002BF7D17B685B7A184600F029F900BF61
:1005C000FFF798FF0346002BFAD17B681B7A184689
:1005D00000F096FA7B681B7C184600F037F97B68C0
:1005E0005B7C184600F05AF97B689B7C184600F04B
:1005F00041F97B68DB7C184600F064F97B689B79E5
:10060000002B0AD000F018FB00BF00F03DFB0346B2
:1006100083F00103DBB2002BF7D17B68DB78002B82
:1006200009D17B689B7983F00103DBB2002B17D0E3
:1006300000F04EFB14E000F03BFB7B6899887B6880
:10064000DA787B685B781D467B681B781C467B6884
:100650009B780093084611462A46234600F048FB43
:100660007B68DB68B3F5803F03D14FF4803000F046
:1006700055F8FFF723FE0837BD46B0BD80B485B0FE
:1006800000AF78607B681B0FFB607B6823F07043D2
:10069000BB60FA6813465B0013449B001A46044B88
:1006A0001344BA681A601437BD465DF8047B70477E
:1006B0001444005080B485B000AF78607B681B0F95
:1006C000FB607B6823F07043BB60FA6813465B00F5
:1006D00013449B001A46084B13441A68BB68134026
:1006E000002B14BF01230023DBB218461437BD468C
:1006F0005DF8047B704700BF0C44005080B500AF2C
:10070000FFF7ECFE0246044B5B6903F0010322FA9B
:1007100003F3184680BD00BF0046005080B483B08C
:1007200000AF78600649064BDB6823F480327B68B3
:100730001343CB600C37BD465DF8047B704700BFA8
:100740000046005080B483B000AF78600649064B85
:100750009B6923F480327B6813438B610C37BD4661
:100760005DF8047B704700BF0046005080B483B042
:1007700000AF78600649064B5B6A23F440327B6821
:1007800013434B620C37BD465DF8047B704700BFD6
:100790000046005080B483B000AF0346FB80FB8866
:1007A000002B08D10A4A0A4BDB6823F4807323F03C
:1007B0000103D36007E0064A054BDB6843F480730E
:1007C00043F00103D3600C37BD465DF8047B7047EE
:1007D0001047005080B483B000AF0346FB7100BFE8
:1007E000094BD3F8C43003F00803002BF8D10749B4
:1007F000064BDB6823F04002FB791343CB600C37D8
:10080000BD465DF8047B7047004000500043005037
:1008100080B483B000AF0346FB7100BF094BD3F82F
:10082000C43003F00803002BF8D10749064BDB68FE
:1008300023F08002FB791343CB600C37BD465DF893
:10084000047B7047004000500043005080B483B0E8
:1008500000AF78600649064BDB6823F0FF027B6837
:10086000013B1343CB600C37BD465DF8047B7047FA
:100870000046005080B483B000AF78600649064B54
:100880001B6A23F001027B68013B13430B620C37A8
:10089000BD465DF8047B70470046005080B483B0CD
:1008A00000AF78600649064B1B6923F001027B68A4
:1008B000013B13430B610C37BD465DF8047B704769
:1008C0000046005080B483B000AF78600649064B04
:1008D0005B6923F001027B68013B13434B610C37DA
:1008E000BD465DF8047B70470046005080B483B07D
:1008F00000AF78600649064B9B6923F007027B68CE
:10090000013B13438B610C37BD465DF8047B704798
:100910000046005080B483B000AF78600649064BB3
:10092000DB6923F03F027B68013B1343CB610C374B
:10093000BD465DF8047B70470046005080B483B02C
:1009400000AF78600649064B5B6A23F0FF027B68C4
:10095000013B13434B620C37BD465DF8047B704787
:100960000046005080B483B000AF78600649064B63
:100970009B6B23F003027B68013B13438B630C37B3
:10098000BD465DF8047B70470046005080B483B0DC
:1009900000AF0346FB71044AFB7953600C37BD4638
:1009A0005DF8047B704700BF0046005080B485B0FE
:1009B00000AF78607B681B0FFB607B6823F070439F
:1009C000BB60FA6813465B0013449B001A46044B55
:1009D0001344BA681A601437BD465DF8047B70474B
:1009E0004846005080B485B000AF78607B681B0F2C
:1009F000FB607B6823F07043BB60FA6813465B00C2
:100A000013449B001A46084B13441A68BB681340F2
:100A1000002B14BF01230023DBB218461437BD4658
:100A20005DF8047B704700BF4046005080B400AFC3
:100A3000054A054B5B6923F4803323F002035361BD
:100A4000BD465DF8047B70471047005080B483B00A
:100A500000AF78603960284A274B5B6943F0010397
:100A6000536100BF244B1B6903F00103002BF9D035
:100A7000214A214B5B6943F0100353611E493B68D7
:100A8000013B1A027B68013B1B0613434B611A4A68
:100A9000194B5B6943F040035361174A164B5B697E
:100AA00023F010035361144A134B5B6943F4802312
:100AB000536100BF104B1B6903F00403002BF9D0F6
:100AC0000D4A0D4B5B6923F00103536100BF0A4BD4
:100AD0001B6903F00103002BF9D1074A064B5B6940
:100AE00023F040035361054B0822DA600C37BD4602
:100AF0005DF8047B704700BF104700506041005014
:100B000080B582B000AF0346FB710F4A0E4B5B68A5
:100B100043F480135360FB79012B0ED10A4A0A4B30
:100B20005B6823F4801353606420FFF7EFFC064AF0
:100B3000054B5B6843F4002353606420FFF7E6FC39
:100B40000837BD4680BD00BF1047005080B400AFDD
:100B5000124B1B6803F00103002B09D10F4B01223C
:100B60005A6000BF0D4B1B6803F00103002BF9D046
:100B70000B4B1B6803F40073002B0AD0084B4FF497
:100B800000729A6000BF064B1B6803F40073002BD1
:100B9000F9D1BD465DF8047B704700BF00420050AC
:100BA0000044005080B400AF064B1B6803F00803FC
:100BB000002B0CBF01230023DBB21846BD465DF8B5
:100BC000047B70470043005080B500AF4FF4000035
:100BD000FFF7CAFC174A174BDB6923F03003D361D8
:100BE00000BFFFF7B5FC034603F40003002BF8D069
:100BF0004FF40030FFF7B8FC0E4B08225A6000BFDC
:100C0000FFF7A6FC034603F40033002BF8D04FF4A3
:100C10000020FFF7A9FC074A064BDB6843F00803F6
:100C2000D36000BFFFF794FC034603F40023002BBE
:100C3000F8D080BD00430050B0B500AF0F4A0F4B55
:100C40005B6823F4803353600D4D0D4B5B6823F4D8
:100C5000702424F0300401F0D1FE0246094BA3FBBE
:100C600002231B0D013B1B0423436B60034A034B10
:100C70005B6823F400335360B0BD00BF10470050E1
:100C8000004700506BCA5F6B80B400AF074B1B6816
:100C900003F46073B3F5607F0CBF01230023DBB264
:100CA0001846BD465DF8047B704700BF10470050F2
:100CB00080B400AF054A054B5B6823F4803323F012
:100CC00002035360BD465DF8047B70471047005037
:100CD00080B400AF054A054B5B6843F4803343F0B2
:100CE00002035360BD465DF8047B70471047005017
:100CF00080B586B000AFBA607B600346FB810B46CF
:100D00007B73FB891846FFF745FD7B7B012B40F089
:100D10008B80FB89002B09D101F070FE0246544BF9
:100D2000A3FB02239B0C9B057B6102E04FF0C06399
:100D30007B617B697A6802FB03F2BB68B2FBF3F369
:100D40007B617B694B4AA2FB03231B099B0D3B6123
:100D5000494A494B5B6843F00103536000BF464B6F
:100D60001B6803F00103002BF9D0434A424B5B6838
:100D700043F01003536040493F4B9A683F4B134088
:100D80007A68013A12021A433B69013B1B041A4379
:100D9000BB68013B1B0613438B60374A364B5B68CD
:100DA00043F040035360344A334B5B6823F0100335
:100DB0005360314A304B5B6843F48023536000BF7B
:100DC0002D4B1B6803F00403002BF9D02A4A2A4B51
:100DD0005B6823F00103536000BF274B1B6803F0DF
:100DE0000103002BF9D17B69254AA2FB03235B0990
:100DF0009B0D3B613A6A3B699A4202D2386900F026
:100E000045F87B695B081F4AA2FB03235B099B0D26
:100E10003B613A6A3B699A4202D2386900F036F87F
:100E2000386A00F033F81CE01349134B9B6823F039
:100E30007F023B6A013B13438B6000BF0E4B1B6874
:100E400003F01003002BF9D00B4A0B4B5B6843F007
:100E50000103536000BF084B1B6803F00103002B24
:100E6000F9D0094B0522DA601837BD4680BD00BFB6
:100E700083DE1B43ABAAAAAA10470050FF8080F074
:100E800089888888B7600BB66041005080B582B011
:100E900000AF78600B490B4B9B6823F4FE027B6824
:100EA000013B1B0413438B6000BF064B1B6803F020
:100EB0002003002BF9D03220FFF728FB0837BD466E
:100EC00080BD00BF1047005080B483B000AF786091
:100ED0007B68D3F8C43103F44073002B0CBF0123AB
:100EE0000023DBB218460C37BD465DF8047B704723
:100EF00080B483B000AF7860084611461A460346B6
:100F0000FB700B46BB7013467B70FA78BB781B04F2
:100F100003F47F031A437B781B061A437B68C3F8EC
:100F2000C4210C37BD465DF8047B704780B483B0A4
:100F300000AF78607B681B6843F040027B681A60F2
:100F40000C37BD465DF8047B704700BF80B483B0AA
:100F500000AF78607B681B6823F040027B681A60F2
:100F60000C37BD465DF8047B704700BF80B483B08A
:100F700000AF786039603A687B68934238BF1346A7
:100F800018460C37BD465DF8047B704780B483B0CB
:100F900000AF786039603A687B68934228BF134697
:100FA00018460C37BD465DF8047B704780B588B0A5
:100FB00000AF786039603B681B683A685268B3FBE1
:100FC000F2F102FB01F29B1A002B40F0908000230B
:100FD000FB610023BB613B681A683B685B68B2FB3E
:100FE000F3F3BB6019237B6100233B610023FB60AB
:100FF0004BE0BB687A69B3FBF2F2796901FB02F25C
:101000009B1A002B3ED10023BB61BA687B69B2FBFF
:10101000F3F3FB61FB69002B34D0FB69B3F5007F70
:1010200030D8FB693F2B0AD9FB6903F00703002B7B
:1010300003D07B69013B7B6127E00123BB617B69B6
:10104000013B3A68128902FB03F32B4AA2FB0323FC
:101050005B0B3B617A693B69D31A013BFB603B69DF
:10106000022B0FD93B690F2B0CD8FB68012B09D938
:10107000FB68062B06D83B685B891A46FB689A42D8
:1010800000D805E07B69013B7B617B69072BB0D809
:101090007B69072B2BD97868FFF748FFFB68013B7A
:1010A0001B0303F4E0423B685B89013B9B01DBB21D
:1010B0001A433B69013B1B0203F4706342EA0301DC
:1010C000BA6913465B0013441A46FB69D340013BDF
:1010D00003F03F0341EA0302BB69DB039BB21A43FF
:1010E0007B681A617868FFF731FF002300E0012375
:1010F00018462037BD4680BD5917B7D180B582B09C
:1011000000AF78600B46FB701346BB7000BF786879
:10111000FFF7DAFE034683F00103DBB2002BF6D1C2
:10112000FB780133DBB2BA7878680221FFF7E0FE82
:101130000837BD4680BD00BF80B582B000AF786083
:101140000A48FFF733FC0948FFF798FA7B681B68E9
:1011500023F001027B681A6000BF7B681B6803F004
:101160000203002BF9D10837BD4680BD10000010E6
:1011700080B483B000AF78600B46FB707B68D3F817
:10118000C83123F00F02FB781A437B68C3F8C821EB
:101190000C37BD465DF8047B704700BF80B483B058
:1011A00000AF78607B68D3F8C831DBB203F00F037F
:1011B000DBB218460C37BD465DF8047B704700BFB4
:1011C00080B584B000AF78600023FB607868FFF7DB
:1011D000E5FF0346012B02D0022B04D007E0FFF706
:1011E0008DFAF86003E001F009FCF86000BFFB68CD
:1011F00018461037BD4680BD80B588B000AFF86096
:101200000B467A60FB72F868FFF796FFFB7AF86886
:101210001946FFF7ADFFF868FFF7D2FFF861FA69EA
:101220007B68B2FBF3F3C3F5806300201946FFF738
:101230009DFE0346184640F2FF31FFF7A7FEB86156
:10124000BB69C3F58063FA69B2FBF3F37B61FB68AA
:10125000DB6823F4434323F0FF03FA68D360FB68A1
:10126000DA68BB69134343F48042FB68DA607B6948
:1012700018462037BD4680BD80B483B000AF78608B
:1012800039607B681B689B6903F00053002B0DD10C
:101290007B681B687A681268926902F060413A685C
:1012A000920422F060420A439A610BE07B681B685B
:1012B0007A681268926902F060413A6822F06042EE
:1012C0000A439A613B6823F060417A68536861F38E
:1012D0001C0353600C37BD465DF8047B704700BFAC
:1012E00080B586B000AF78607B681B6803F1384337
:1012F000A3F5A8335B097B617B695B095A037B69B2
:1013000003F01F031B0213433B617B681B687A6871
:101310001268926822F47F429A607B681B687A6840
:10132000126891683A690A439A607B68DB7903F036
:101330002003DBB2002B07D07B68DB7903F02003AE
:10134000DBB2002B00D160E07B681B7E002B04D059
:101350007B681B7E012B00D057E07B681B68202236
:10136000DA617B68DB7903F02003DBB2002B28D144
:101370007B685B68FB60FB6803F06043FB607B6835
:101380005B68C3F31C039B041A46FB681343FB60B2
:101390007B681B68FA689A617B689B68FB60FB68E6
:1013A00003F06043FB607B689B68C3F31C039B04F2
:1013B0001A46FB681343FB607B681B68FA68DA60B7
:1013C00009E07B681B687A6852689A617B681B68D1
:1013D0007A689268DA607B681B7E012B0CD1786892
:1013E00000F01AF87B681B684FF00062DA617B68D6
:1013F0001B68074ADA6108E07B681B684FF40062EB
:10140000DA617B681B68034ADA611837BD4680BD24
:10141000C00020064006A00080B485B000AF786010
:101420000323FB737B681B7E012B22D17B681B6827
:101430002022DA617B681B687A681268126822F0E1
:1014400070617A68127B120602F070620A431A60B9
:101450007B681B687A6812691A617B681B687A6806
:1014600052695A617B681B68064ADA610023FB7384
:1014700001E00323FB73FB7B18461437BD465DF880
:10148000047B70474000280080B487B000AF7860CC
:101490000123FB757B681B68DB6903F020035B0994
:1014A0003B617B681B68DB6903F480731B0AFB608C
:1014B0003B69002B02D10423FB750CE0FB68012B78
:1014C00002D10223FB7506E07B681B684FF0E062E7
:1014D000DA610023FB75FB7D18461C37BD465DF8BD
:1014E000047B704780B487B000AF78600123FB7540
:1014F0000023BB7500237B757B681B68DB6903F4E5
:101500000063DB0A3B617B681B68DB6903F0040353
:101510009B08FB603B69002B02D00323FB75A7E00F
:10152000FB68012B02D10223FB75A1E07B681B68DD
:101530000822DA617B681B689B6903F000535B0F2C
:10154000002B40D17A68D3796FF34513D3717B6850
:101550001B689A694A4B13409B0C23F060417A68E0
:10156000536861F31C0353607B681B68DB6803F0FE
:1015700000535B0FDBB203F00103D9B27A68D37A70
:1015800061F34513D3727B68DB7A03F02003DBB28F
:10159000002B0DD07B681B68DA68394B13409B0C1D
:1015A00023F060417A68936861F31C03936032E032
:1015B0007B681B68DB6823F060417A68936861F39D
:1015C0001C03936027E07A68D37943F02003D3713A
:1015D0007B681B689B6923F060417A68536861F3FC
:1015E0001C0353607B681B68DB6823F060417A68EA
:1015F000936861F31C0393607B681B68DB6803F0EE
:1016000000535B0FDBB203F00103D9B27A68D37ADF
:1016100061F34513D3727B681B681B6803F070632A
:101620001B0EDAB27B681A737B681B681A697B68C9
:101630001A617B681B685A697B685A617B681B6802
:10164000DB6903F004039B08BB757B681B68DB69DF
:1016500003F00803DB087B75BB7D002B03D07B7D8B
:10166000002B7FF463AF7B6800221A760023FB75A2
:10167000FB7D18461C37BD465DF8047B704700BFF4
:101680000000FC1F80B483B000AF786039603B6815
:10169000B3F5800F06D07B681A683B681A437B68F5
:1016A0001A6005E07B689A693B681A437B689A6117
:1016B0000C37BD465DF8047B704700BF80B483B033
:1016C00000AF78607B684FF48072DA600C37BD46FB
:1016D0005DF8047B704700BF80B582B000AF7860D2
:1016E0007B68104A934203D10420FEF7C7FF16E03F
:1016F0007B680D4A934203D10820FEF7BFFF0EE03E
:101700007B680A4A934203D11020FEF7B7FF06E038
:101710007B68074A934202D10648FEF7AFFF0837BD
:10172000BD4680BD00C000400000014000400140B7
:10173000004000480100001080B582B000AF786022
:101740007B68104A934203D10420FFF72FF916E07B
:101750007B680D4A934203D10820FFF727F90EE07A
:101760007B680A4A934203D11020FFF71FF906E075
:101770007B68074A934202D10648FFF717F90837FA
:10178000BD4680BD00C00040000001400040014057
:10179000004000480100001080B582B000AF7860C2
:1017A0001020FFF7F3F87868FFF7C6FF7868FFF7B7
:1017B00093FF0837BD4680BD80B584B000AF786028
:1017C0000B46FB707868FFF7E7FF7868FFF776FF56
:1017D0007B681B68FB60FB6823F44043FB60FB787D
:1017E0009B03FA681343FB607B68FA681A60103742
:1017F000BD4680BD80B483B000AF786039603B687F
:101800001A687B685A613B685B79C3F34013DBB2AB
:101810001A057B685A603B681B79C3F30303DBB28C
:101820001A467B685A623B685B79C3F30303DBB2F9
:101830001A467B681A623B685B79C3F30013DBB21C
:101840001A467B689A613B681B79C3F30313DBB2CA
:101850001A467B68DA620C37BD465DF8047B704738
:1018600080B487B000AF78600B46FB701346BB7046
:10187000FB780B2B36D801A252F823F0AD180008E4
:10188000AD180008B7180008B7180008E5180008D8
:10189000E5180008E5180008E5180008C118000858
:1018A000CD180008D9180008D918000803233B6197
:1018B00000237B611BE00C233B6102237B6116E06C
:1018C0004FF440733B6108237B6110E04FF44063A9
:1018D0003B610A237B610AE04FF440533B610C23D8
:1018E0007B6104E000233B6100237B6100BF3B6917
:1018F000002B13D07B68D3F8A830FB603B69DB4337
:10190000FA681340FB60BA787B6902FA03F3FA685D
:101910001343FB607B68FA68C3F8A8201C37BD46F8
:101920005DF8047B704700BF80B483B000AF78607F
:101930000B46FB701346BB707B685A6FFB785B00ED
:10194000194603238B40DB431A407B685A677B6848
:101950005A6FBB78F97849008B401A437B685A6705
:101960000C37BD465DF8047B704700BF80B584B07E
:1019700000AFF860B9601346FB71F86800F052F8E8
:10198000BB685B79002B15D1FB79002B12D0BB68AB
:101990001B79002B07D0BB681B68F8681946022228
:1019A00000F0FEF806E0BB681B68F86819460222E2
:1019B00000F084F8FB680F4A5A63FB684FF4A26298
:1019C0009A63BB685B79002B07D1BB689B7943F0B6
:1019D0000B03DBB21A46FB68DA63FB684FF0FF3299
:1019E000DA64BB681B891A46FB681A641037BD4667
:1019F00080BD00BF02013F0780B483B000AF7860B4
:101A000039607B68DB6B23F47F027B68DA637B6879
:101A1000DA6B3B681A437B68DA630C37BD465DF8C6
:101A2000047B704780B582B000AF78607B681A4A4B
:101A3000934203D07B68194A934203D1184800F0BF
:101A40009DF916E07B68174A934203D07B68164ADB
:101A5000934203D1154800F091F90AE07B68144ADB
:101A6000934203D07B68134A934202D1124800F09C
:101A700085F97B680322DA6000BF7B68DB6803F0CE
:101A80000103002BF9D07B681B6C23F00F027B68ED
:101A90001A640837BD4680BD0000034000020340C1
:101AA0000800034000000248000202480800024803
:101AB00000400248004202480840024880B58EB00B
:101AC00000AFF860B9607A60BB68632B5AD97B6855
:101AD000002B57D0FEF712FE02462F4BA3FB02232A
:101AE0005B093B62BB682C4AA2FB03235B09BB601A
:101AF0004FF48063FB620123BB6240F2FF337B62E1
:101B00004FF480633B6322E03B6A3A6B02FB03F2D3
:101B1000BB68796801FB03F3B2FBF3F3FB61FB697C
:101B20009B0ABB61FB69C3F309037B61BB69B3F526
:101B3000806F09D87A697B6A9A4205D27B697B6299
:101B4000BB69BB623B6BFB623B6B013B3B633B6B2B
:101B5000002BD9D1FB6A013B43F40042FB681A61B8
:101B6000FB685A690D4B13407A68013A92021A4396
:101B7000BB6A013B1B041A43FB685A61002387F8C8
:101B8000373002E0012387F8373097F837301846AE
:101B90003837BD4680BD00BF1F85EB51EF8000FC8C
:101BA00080B58CB000AFF860B9607A60FEF7A6FD32
:101BB00003463B62BB687A6802FB03F3FB610123C7
:101BC000FB623A6AFB699A425FDD3A6AFB6992FB03
:101BD000F3F3BB6210E0FB6A0133FB62BB687A6817
:101BE00002FB03F31A46FB6A03FB02F3FB613A6A4A
:101BF000FB6992FBF3F3BB62BB6A40F2FE32934295
:101C0000E9D83A6A7B68B96A01FB03F3F96A01FB18
:101C100003F3B2FBF3F3BB613A6ABB6A0133796841
:101C200001FB03F3F96A01FB03F3B2FBF3F37B61FE
:101C3000BA687B69D31A83EAE372A2EBE372B968EC
:101C4000BB69CB1A002BB8BF5B429A4202DABB6A6F
:101C50000133BB62BB6AC3F58063BB62BB6A43F4FA
:101C60008042FB681A61FB685A690C4B13407A6822
:101C7000013A92021A43FB6A013B1B041A43FB68B8
:101C80005A61002387F8273002E0012387F82730C4
:101C900097F8273018463037BD4680BDEF8000FCEE
:101CA00080B485B000AFF860B9603B601346FB714B
:101CB000FB68D3F8083123F0E062FB68C3F8082121
:101CC000FB68D3F80821094B13403A681102BA683F
:101CD0001143FA7912060A431A43FB68C3F8082134
:101CE0001437BD465DF8047B704700BFC0C0FFF8E5
:101CF00080B485B000AFF860B9603B601346FB71FB
:101D0000FB68D3F80C3123F0E062FB68C3F80C21C8
:101D1000FB68D3F80C210A4B13403A681102BA68E9
:101D20001143FA7912060A43134343F08052FB68C9
:101D3000C3F80C211437BD465DF8047B704700BF23
:101D4000C0C0FFEF80B485B000AFF8600B467A608A
:101D5000FB72FB689A69FB7A072101FA03F3DB4304
:101D60001A40FB7A796801FA03F31A43FB689A6117
:101D70001437BD465DF8047B704700BF80B582B064
:101D800000AF78607B68284A934218D14FF4006016
:101D9000FEF70CFE00BF4FF40060FEF723FE034683
:101DA000002BF8D14FF40060FEF768FC00BF4FF441
:101DB0000060FEF77FFC0346002BF8D130E07B6823
:101DC0001A4A934214D11A48FEF7F0FD00BF184892
:101DD000FEF708FE0346002BF9D11548FEF74EFC2E
:101DE00000BF1348FEF766FC0346002BF9D117E04D
:101DF0007B68104A934213D10F48FEF7D7FD00BF0E
:101E00000D48FEF7EFFD0346002BF9D10A48FEF717
:101E100035FC00BF0848FEF74DFC0346002BF9D106
:101E20000837BD4680BD00BF0800034008000248D7
:101E300080000010084002480001001080B584B006
:101E400000AF7860144B1B68002B02D1124B134A71
:101E50001A60114B1B68FB607B68033323F003039C
:101E60007B600D4B1A687B6813440D4A934207D27E
:101E7000094B1A687B681344074A1360FB6806E045
:101E800008F0B4FA02460C2313604FF0FF331846F3
:101E90001037BD4680BD00BF8093FE1F00000020AC
:101EA000C0FF032080B400AFBD465DF8047B7047DF
:101EB00080B485B000AF0346FB71FB7BDBB21846F4
:101EC0001437BD465DF8047B704700BF80B483B013
:101ED00000AF0346FB710C37BD465DF8047B7047CD
:101EE00080B500AF00F004F80346184680BD00BF7F
:101EF00080B582B000AF0023FB8009E000F010F84D
:101F00000346002B01D0002306E0FB880133FB8051
:101F1000FB88632BF2D9012318460837BD4680BDE4
:101F200080B582B000AF0020FFF7D0FF0520FFF79B
:101F3000BFFF0020FFF7BCFF0346FB710120FFF746
:101F4000C5FFFB79DBB203F00103002B0CBF0123BB
:101F50000023DBB218460837BD4680BD80B584B08B
:101F600000AF0346FB800020FFF7B0FF0320FFF720
:101F70009FFFFB881B0A9BB2DBB21846FFF798FF56
:101F8000FB88DBB21846FFF793FF0020FFF790FFB6
:101F90000346FB730120FFF799FFFB7BDBB218467A
:101FA0001037BD4680BD00BF80B582B000AF03468C
:101FB0000A46FB8013467B710020FFF787FF06204F
:101FC000FFF776FF0120FFF781FF0020FFF77EFF7C
:101FD0000220FFF76DFFFB881B0A9BB2DBB218469D
:101FE000FFF766FFFB88DBB21846FFF761FF7B79DE
:101FF0001846FFF75DFF0120FFF768FF0837BD4671
:1020000080BD00BF80B584B000AF03463960FB805F
:1020100013467B71FFF76CFF0346FB730023BB8104
:1020200025E0FA88BB89134499B2BB893A68134406
:102030001B7808461946FFF7B7FF00237B810FE0A6
:102040007B89B3F5C87F08D1FFF752FF0346FB73C6
:10205000FB7B002B01D0FB7B0FE07B8901337B8175
:102060007B89B3F5C87FEBD9BB890133BB817B7911
:102070009BB2BA899A42D4D3FB7B18461037BD462F
:1020800080BD00BF80B586B000AF03463960FB80DD
:102090001346BB8000237B82BB889B093B82BB88A5
:1020A00003F03F03FB810023BB8218E0FA887B8AA0
:1020B000134499B27B8A3A68134408461946402271
:1020C000FFF7A0FF0346FB757B8A40337B82FB7DD5
:1020D000002B01D0FB7D1AE0BB8A0133BB82BA8A98
:1020E0003B8A9A42E2D3FB89002B0FD0FA887B8A85
:1020F000134499B27B8A3A681A44FB89DBB20846DA
:1021000011461A46FFF77EFF0346FB75FB7D184616
:102110001837BD4680BD00BF90B585B000AF0346FF
:102120003960FB801346BB800023FB810EE0FB89F6
:102130003A68D418FA88FB8913449BB21846FFF713
:102140000DFF03462370FB890133FB81FA89BB88AD
:102150009A42ECD3FFF7CCFE034618461437BD462F
:1021600090BD00BF80B483B000AF78600B46FB70B9
:10217000FB7801229A407B68DA600C37BD465DF837
:10218000047B704780B483B000AF78607B68012225
:10219000DA600C37BD465DF8047B704780B483B0CD
:1021A00000AF78607B6802221A610C37BD465DF88B
:1021B000047B704780B483B000AF78600B467B80AF
:1021C0007A887B685A630C37BD465DF8047B70479C
:1021D00080B483B000AF78600B467B807A887B68E0
:1021E000DA630C37BD465DF8047B704780B483B07A
:1021F00000AF786039607B683A681A610C37BD4679
:102200005DF8047B704700BF80B483B000AF786096
:102210000B46FB707B68D3F8A420FB78012101FA00
:1022200003F31A437B68C3F8A4200C37BD465DF85E
:10223000047B704780B483B000AF78600B46FB70BE
:10224000FB7801229A407B68C3F8B0200C37BD466A
:102250005DF8047B704700BF80B584B000AF786044
:102260000023FB737B6893F8263083F00103DBB215
:10227000002B09D07B6893F82130002B04D17868BB
:1022800000F01AF80346FB73FB7B18461037BD4677
:1022900080BD00BF80B582B000AF78607B6893F8E6
:1022A0002130002B05D17B685B6918460021FFF7C0
:1022B000C1FF0837BD4680BD80B584B000AF7860EF
:1022C0007B681B69184600F0B3FA0346FB737B6812
:1022D0001B699A687B681B7E10461946FFF742FF10
:1022E0007B685A697B68DB6910461946FFF782FAFA
:1022F000786800F02DF87B6893F82530002B0FD01C
:102300007B685A697B6893F82030104600211A4692
:10231000FFF7A6FA7B685B6918460021FFF774FF98
:102320007B685B691846FFF739FF7B68012283F8F9
:1023300026207B6893F82430002B04D07B685B69EF
:102340001846FFF71FFFFB7B18461037BD4680BDC0
:1023500080B582B000AF78607B685A697B685B8C1F
:1023600010461946FFF726FF7B685B691846002177
:10237000FFF72EFF7B681B699A687B68DB68104655
:102380001946FFF733FF0837BD4680BD80B584B0DE
:1023900000AF78607B685B685B6898470346FB73B7
:1023A000FB7B18461037BD4680BD00BF80B483B0AC
:1023B00000AF78600B46FB701346BB70F878FB7873
:1023C0007A6806339B0013445B6823F00702BB78EE
:1023D0001A437968831D9B000B445A600C37BD4635
:1023E0005DF8047B704700BF80B483B000AF7860B5
:1023F0000B46FB707B685B6B23F07062FB78013BE4
:102400001B061A437B685A630C37BD465DF8047B94
:10241000704700BF80B483B000AF78600B46FB709C
:102420007B685B6B23F47C12FB78013B1B041A4333
:102430007B685A630C37BD465DF8047B704700BF6C
:1024400080B485B000AFF860B9607A60FB685B6902
:1024500023F05042BB681A437B681A43FB685A61F9
:102460001437BD465DF8047B704700BF80B483B06D
:1024700000AF78600B46FB707B681B6C23F00F028B
:10248000FB781A437B681A640C37BD465DF8047B01
:10249000704700BF80B582B000AF7860396078685F
:1024A00039680122FFF762FA0837BD4680BD00BFD8
:1024B00080B582B000AF786078680121FFF7D6FF61
:1024C0000837BD4680BD00BF80B483B000AF7860E0
:1024D0007B685B6B43F001027B685A630C37BD4637
:1024E0005DF8047B704700BF80B483B000AF7860B4
:1024F00039607B685B6923F4FE423B68013B9B02C9
:10250000134343F480727B685A610C37BD465DF813
:10251000047B704780B483B000AF78607B68DB6B6E
:1025200023F008027B68DA630C37BD465DF8047B54
:10253000704700BF80B584B000AFF860B9607A60C2
:10254000F868B9687A68FFF77BFF1037BD4680BD31
:1025500080B582B000AF78600B46FB70FB7878687E
:102560001946FFF741FF0837BD4680BD80B582B0F0
:1025700000AF78600B46FB70FB7878681946FFF770
:1025800049FF0837BD4680BD80B582B000AF786096
:102590000B46FB701346BB70F878FB787A680633FD
:1025A0009B0013445B6823F0500343F010027968EA
:1025B000831D9B000B445A60FA78BB7878681146FB
:1025C0001A46FFF7F3FE0837BD4680BD80B582B0DE
:1025D00000AF0023FB7129482949FFF75BFF27481B
:1025E000FFF798FF2548FFF76FFF24480821FFF702
:1025F000AFFF22480821FFF7B9FF20484FF0804184
:102600000022FFF797FF1D480221FFF76DFF1D48CD
:1026100000211D4AFDF7BCFE184800210322FFF7E8
:10262000B3FF1648FFF744FF16480121174AFDF78C
:10263000AFFE17480A21174AFDF7AAFE16480721E0
:10264000164AFDF7A5FE0D484FF48031FFF7D4F987
:102650000A4810210022FFF775FB084820210522B7
:102660000123FFF71DFB0548002105221F23FFF76B
:102670003FFBFB7918460837BD4680BD000003408C
:102680004488FE1F008502488493FE1F3088FE1F89
:102690000081024858A600080080024874A600087D
:1026A00080B400AF044BDB6803F4E0631B0A1846F8
:1026B000BD465DF8047B704700ED00E080B483B058
:1026C00000AF0346FB7197F90730002B0BDB08497D
:1026D00097F907305B09FA7902F01F02012000FA2E
:1026E00002F241F823200C37BD465DF8047B7047A9
:1026F00000E100E080B483B000AF03463960FB71B5
:1027000097F90730002B0ADB0D4997F907303A6833
:10271000D2B29200D2B20B4483F800230AE00949F6
:10272000FB7903F00F03043B3A68D2B29200D2B2B5
:102730000B441A760C37BD465DF8047B704700BF2A
:1027400000E100E000ED00E080B489B000AFF86087
:10275000B9607A60FB6803F00703FB61FB69C3F1B2
:102760000703062B28BF0623BB61FB690633062B34
:1027700002D9FB69013B00E000237B61BB690122B8
:1027800002FA03F35A1EBB681A407B699A407B69C0
:10279000012101FA03F3591E7B680B4013431846CD
:1027A0002437BD465DF8047B704700BF80B582B01A
:1027B00000AF78607B681B785BB21846FFF77EFF3E
:1027C0000837BD4680BD00BF90B583B000AF7860CC
:1027D0007B681C78FFF764FF01467B685B781A46CC
:1027E0007B689B78084611461A46FFF7ADFF024604
:1027F00063B218461146FFF77DFF7B68DB78002B3C
:1028000002D07868FFF7D2FF002318460C37BD4688
:1028100090BD00BF80B483B000AF78607B684FF498
:102820008072DA600C37BD465DF8047B704700BFEC
:1028300080B582B000AF78607B685B7B83F001037A
:10284000DBB2002B0FD07B689A687B681B7B10463D
:102850001946FEF7B1FF7B689B681846FFF7DAFF61
:102860007B6801225A73002318460837BD4680BD95
:1028700080B584B000AF78600023FB737B685B7A1F
:1028800083F00103DBB2002B0FD07B6859687B68B3
:102890001A7A7B681B68084611461A46FEF7ACFC9C
:1028A0007B6801225A720023FB73FB7B18461037AA
:1028B000BD4680BD80B582B000AF78607B68196886
:1028C0007B681A7C7B680433084611461A46FDF77C
:1028D0005FFD7B6819687B681A7C7B685B7C0846B7
:1028E00011461A46FFF720F8002318460837BD4660
:1028F00080BD00BF80B485B000AF78607B6803F016
:102900000703FB600C4BDB68BB60BA684FF6FF0344
:102910001340BB60FB681A02BB68134343F0BF63FC
:1029200043F40033BB60044ABB68D3601437BD4630
:102930005DF8047B704700BF00ED00E080B582B019
:1029400000AF0120FFF7D6FF72B6214B214A9A60F3
:10295000BFF34F8F62B61E4A1D4BD3F8883043F445
:102960007003C2F888301C4B03F5805314331B6886
:102970007B607B6823F00F037B607B6843F004037C
:102980007B60154B03F5805314337A681A60104A44
:102990000F4B5B6923F0100353610D4A0C4B5B69CD
:1029A00023F0080353610A4A094B5B6A23F480331E
:1029B0005362074A064B5B6A23F400335362044AAE
:1029C000034B5B6A23F4802353620837BD4680BD06
:1029D00000ED00E0000000080010005880B485B051
:1029E00000AF78600023FB737B6801221A70FB7BC9
:1029F00018461437BD465DF8047B704780B400AFBD
:102A0000024B1846BD465DF8047B7047001BB700BB
:102A100080B483B000AF78600649064B9B6B23F40B
:102A200080327B6813438B630C37BD465DF8047BB3
:102A3000704700BF00460050B0B586B000AF164BDF
:102A40003C1D1D460FCD0FC42B6823603B1D18464F
:102A5000FDF798FD0020FDF7BDFE4FF48030FDF737
:102A600071FE0620FDF742FFFDF7E0FF0320642121
:102A7000FDF7ECFF0020FFF7CBFF0220FDF772FF10
:102A80000020FDF773FE0120FDF758FF0120FDF740
:102A900041FF1837BD46B0BD30A7000880B485B0EF
:102AA00000AFF8600B467A60FB72FB689A68FB7AAD
:102AB000072101FA03F3DB431A40FB7A796801FA34
:102AC00003F31A43FB689A601437BD465DF8047B34
:102AD000704700BF80B483B000AF78600B46FB70D6
:102AE0007B68DB6823F00702FB7803F007031A43D7
:102AF0007B68DA600C37BD465DF8047B704700BF29
:102B000080B483B000AF78607B68DB6843F4807288
:102B10007B68DA600C37BD465DF8047B704700BF08
:102B200080B483B000AF78607B681B6843F04002DC
:102B30007B681A600C37BD465DF8047B704700BFA8
:102B400080B483B000AF78607B681B6823F04002DC
:102B50007B681A600C37BD465DF8047B704700BF88
:102B600080B483B000AF78607B681B6843F00102DB
:102B70007B681A600C37BD465DF8047B704700BF68
:102B800080B483B000AF78607B681B6823F00102DB
:102B90007B681A600C37BD465DF8047B704700BF48
:102BA00080B483B000AF78607B681B6823F080023C
:102BB0007B681A600C37BD465DF8047B704700BF28
:102BC00080B485B000AFF8600B467A60FB72FB689A
:102BD0001B68FA6812689168FA7A072000FA02F214
:102BE000D2431140FA7A786800FA02F20A439A60F6
:102BF0001437BD465DF8047B704700BF80B483B0D6
:102C000000AF78607B681B68DB6918460C37BD46EF
:102C10005DF8047B704700BF80B483B000AF78607C
:102C200039607B681B683A68DA610C37BD465DF82D
:102C3000047B704780B483B000AF786039607B68F4
:102C40001B687A68126811683A680A431A600C3780
:102C5000BD465DF8047B704780B582B000AF7860F8
:102C60007B681B6818464FF40031FFF7E3FF083715
:102C7000BD4680BD80B582B000AF78607B681B68C0
:102C800018464FF48031FFF7D5FF0837BD4680BDA9
:102C900080B584B000AF78600023FB60786800F0F6
:102CA00031F87B6893F8A430002B03D0FB6843F025
:102CB0000203FB607B6893F8A330002B03D0FB6812
:102CC00043F00403FB607B6893F8A530002B03D02E
:102CD000FB6843F00803FB607B685B681846F96893
:102CE000FEF7D0FC7B6893F8A630002B06D07B68FB
:102CF0005B6818464FF48001FEF7C4FC1037BD46F0
:102D000080BD00BF80B582B000AF78607B685A6834
:102D10007B68D3F88C301B78104600211A46FFF7E9
:102D2000BDFE7B685A687B68D3F88C305B781046B0
:102D300004211A46FFF7B2FE7B685A687B68D3F815
:102D40008C309B78104608211A46FFF7A7FE7B6857
:102D50005A687B68D3F88C30DB7810460C211A4611
:102D6000FFF79CFE0837BD4680BD00BF80B582B02E
:102D700000AF78607B681B681846FEF7B1FA7B6885
:102D8000DB79002B0BD07B681A687B685B79104677
:102D900004211A46FFF714FF7868FFF75DFF7B6890
:102DA0001B7A002B0BD07B681A687B689B791046D6
:102DB00000211A46FFF704FF7868FFF75BFF08372A
:102DC000BD4680BD80B584B000AF78600023FB7342
:102DD0007B681B681846FEF757FB0346FB73FB7BBB
:102DE00018461037BD4680BD80B584B000AF78600E
:102DF0000023FB737B681B681846FEF773FB0346D2
:102E0000FB73FB7B18461037BD4680BD80B584B090
:102E100000AF786039600023FB733B68BB607B6860
:102E20001B68BA6812681A617B681B68BA685268C6
:102E30005A617B681B681846FEF7EEFA0346FB737F
:102E4000FB7B18461037BD4680BD00BF80B584B0FF
:102E500000AF78607B681B681846FFF7CFFEF8600C
:102E6000FB6818461037BD4680BD00BF80B582B0F4
:102E700000AF786039607B681B6818463968FFF7D7
:102E8000CBFE0837BD4680BD80B586B000AF786008
:102E90000023FB757B68D3F89030FB607B681B6870
:102EA0001846FFF7E5FC0346FB75FB7D002B40F061
:102EB00087807B685A687B689B6810461946FEF7D6
:102EC00075F80346002B78D17B685B681846FFF7DE
:102ED00027FE7B685B681846FFF742FE7B685B68ED
:102EE0001846FFF75DFE7B6893F8A730002B05D0EE
:102EF0007B685B681846FFF703FE18E07B68D3F831
:102F0000983019687B68D3F898301A797B68D3F8C1
:102F10009C30084611461A46FDF73AFA7B685A6813
:102F20007B6893F8A03010461946FFF7D3FD786808
:102F3000FFF7AEFE00233B6119E07A683B6902337C
:102F40009B0013445B68BB607B681B6859687B68A7
:102F500093F8A120BB681B79084611461A46FEF774
:102F6000CDF8B868FFF702FF3B6901333B617B682E
:102F700093F8A2301A463B699A42DED87B685B68B8
:102F80001846FFF7DDFD7B685B681846FFF7F8FD24
:102F90007B6893F8A73083F00103DBB2002B11D0DC
:102FA000FB681968FB681A797B68D3F89430084687
:102FB00011461A46FDF7ECF904E00123FB7501E028
:102FC0000123FB75FB7D18461837BD4680BD00BF49
:102FD00080B582B000AF0023FB711D48FFF7FEFCF7
:102FE0000346FB71FB79002B04D11A48FFF74CFF15
:102FF0000346FB71FB79002B04D11748FFF72CF92E
:103000000346FB71FB79002B04D11448FFF7DCFB6E
:103010000346FB71FB79002B04D11148FFF7D4FB69
:103020000346FB71FB79002B04D10E48FFF7AEF984
:103030000346FB71FB79002B04D10B48FFF73AFCE8
:103040000346FB71FB7918460837BD4680BD00BFBB
:103050009893FE1F94A700080888FE1F14A7000875
:1030600018A700087488FE1F1CA7000880B584B04C
:1030700000AF786007F10C0318467968042207F066
:10308000FCF9FB6818461037BD4680BD80B483B09C
:1030900000AF786039607B68002B01D1052303E025
:1030A0007B683A689A6000235BB218460C37BD46CD
:1030B0005DF8047B704700BF80B588B000AFF86052
:1030C000B9607A603B60FB68002B0CD0FB685B7CCE
:1030D000002B08D0BB68002B05D07B68042B02D1E5
:1030E0003B68002B01D109236AE0FB685B68BB6188
:1030F000FB685B7C002B07D0BB695B6A002B03D0AD
:10310000BB695B6B002B01D1042359E0B868FFF762
:10311000ADFF02462D4B9A4201D0152350E000230B
:10312000FB770023BB7700237B7731E0BB69D96A4B
:103130007A7F13469B001344DB000B447B61FB68E2
:103140005B7C012B05D07B691A7AFB685B7C9A4219
:103150001BD1FB7F002B01D10123FB777B695B7ABD
:1031600003F00103002B10D0BB695B6ABA69126AD5
:103170007869114698470346FB7497F91330002B82
:1031800001D0FB7CBB770223FB777B7F01337B770E
:10319000BB6993F830307A7F9A42C7D3FB7F022B0A
:1031A00006D0FB7F002B01D10E2300E00423BB7768
:1031B00097F91E30002B02D13B6804221A60BB7FB6
:1031C0005BB218462037BD4680BD00BF736176658F
:1031D00080B588B000AFF860B9607A603B60FB688A
:1031E000002B0CD0FB685B7C002B08D0BB68002B4D
:1031F00005D07B68042B02D13B68002B01D1092349
:103200006AE0FB685B68BB61FB685B7C002B07D0F6
:10321000BB699B6A002B03D0BB695B6B002B01D1A0
:10322000042359E0B868FFF721FF02462D4B9A426C
:1032300001D0152350E00023FB770023BB77002348
:103240007B7731E0BB69D96A7A7F13469B001344D0
:10325000DB000B447B61FB685B7C012B05D07B6949
:103260001A7AFB685B7C9A421BD1FB7F002B01D151
:103270000123FB777B695B7A03F00403002B10D0FA
:10328000BB699B6ABA69126A786911469847034616
:10329000FB7497F91330002B01D0FB7CBB77022322
:1032A000FB777B7F01337B77BB6993F830307A7F84
:1032B0009A42C7D3FB7F022B06D0FB7F002B01D1A4
:1032C0000E2300E00423BB7797F91E30002B02D1B8
:1032D0003B6804221A60BB7F5BB218462037BD46AC
:1032E00080BD00BF6C6F616480B584B000AFF860D2
:1032F000B9607A603B60FB68002B01D1FF2334E0AA
:10330000FB68BA681A62FB68BA695A62FB68FA69B4
:103310009A62FB683A6ADA62FB6897F8242083F8BD
:1033200030207B68002B0DD0FB68FA681A60FB68C0
:10333000104A5A60FB68104A9A60FB687868194620
:10334000FFF7A4FE3B68002B0ED0FB68FA681A61F9
:10335000FB68084A5A61FB68084A9A61FB681033A7
:1033600038681946FFF792FE00235BB21846103703
:10337000BD4680BD8D550008B9300008D131000828
:1033800080B586B000AF786039607B68D8687B68AC
:1033900019687B689A697B685B6806F043FE786110
:1033A0007B681A687B685B6810461946002205F046
:1033B000D7FC03461A467B681A827B68D9687B680B
:1033C0009A697B685B68084611461A4606F044FE17
:1033D00003467B827B681B8A7A8A9A4202D17B6988
:1033E000002B01D10A232BE07B685B683B827B6862
:1033F0001B8A1A043B8A1343FB607B68D9687B688D
:103400005B6907F10C02084611461A46042306F0D0
:1034100009FE78617B68D9687B685B6907F10802FF
:10342000084611461A46042306F0E8FDFA68BB6810
:103430009A4202D17B69002B01D10A2300E00023CC
:103440005BB218461837BD4680BD00BF80B586B058
:1034500000AF786039604FF0FF333B617B68D9681B
:103460007B685B6907F11002084611461A4604237F
:1034700006F0D8FD78617B68D9687B685B6907F1E5
:103480000C02084611461A46042306F0B7FD3A69B5
:10349000FB689A4202D17B69002B01D10A2300E02C
:1034A00000235BB218461837BD4680BD2DE9F047B2
:1034B00094B004AFF860B9607A603B606B469A469E
:1034C00000233B61FB68002B09D07B6E002B06D0EC
:1034D00097F86830002B02D0FB6E002B01D1FF2340
:1034E00005E1FB6800225A63786806F031FD034667
:1034F000002B05D1FB6E4FF0FF321A60F323F6E08C
:103500007E4B00937E4B01937B6E029397F868305D
:103510000393F868B9683A683B6EFFF7E5FE034627
:1035200087F83F3097F93F30002B02D097F83F30B3
:10353000DDE097F868603346013B3B63F2B24FF041
:1035400000034FEA431949EAD2694FEA4218F2B23E
:103550004FF000035D0145EAD265540133469B00FC
:1035600003330733DB08DB00ADEB030D04AB0333A0
:103570009B089B00FB6233469A0007F110037868B2
:10358000002106F0F5FCB862FA6A33469B007868C1
:103590001146BA6A06F032FDFB6E00221A60002363
:1035A00087F83E3097E097F83E2013469B0013447F
:1035B000DB001A467B6E13447B627B6A5B7A03F006
:1035C0000203002B14BF01230023DBB23B627B6AA2
:1035D0001B68002B07D07B6A5B68002B03D07B6ADB
:1035E0001B7A012B05D897F83E20FB6E1A60FF234B
:1035F0007DE097F83E309A00BB6A1A447B6A5A61B4
:103600007B6A5A6807F110037868396A06F0B0FCE3
:1036100002467B6A9A617B6A0022DA613B69002B71
:1036200005D097F83E20FB6E1A60FE235FE097F806
:103630003E20FB6A53F82230FB61FB697B83FB6908
:103640001B0C9AB27B6A1A827B6A5B683B830023FD
:10365000BB637A8B3B8B9A4202D00123BB631EE093
:103660007B6AD8687B6A19687B6A9A697B6A5B683F
:1036700006F0C4FC3B6A002B11D17B6A1A687B6A96
:103680005B6810461946002205F06AFB0346FB8280
:103690007B6A1B8AFA8A9A4201D00123BB63BB6B07
:1036A000002B13D07B6A1B7A7B637B6B1F2B01D9AA
:1036B0001F237B63FB6E1A687B6B012101FA03F306
:1036C0001A43FB6E1A60F32387F83F3097F83E30B9
:1036D000013387F83E3097F83E2097F868309A42D9
:1036E000FFF461AFFB6801225A6397F83F30D5467B
:1036F0005BB218464037BD46BDE8F087813300080D
:103700004D34000880B590B000AF786039607B68B8
:103710007B633B681B7987F8333097F83330082B8D
:1037200040F064817B6B5B6C002B40F05F81002379
:10373000FB633B680533FB62FB6A1B7887F82B3021
:1037400097F82B30042B2FD1FB6A5B7887F82A304F
:1037500097F82A30002B02D0012B20D023E07B6B7E
:103760001B7C012B10D17B6B93F84030FF2B0BD1CE
:103770007B6BDB6B1B78FF2B06D07B6B97F82B20CA
:1037800083F848200123FB637B6B00221A747B6B58
:10379000143318460021102206F08AFE03E07B6BEA
:1037A00001221A7400BF1BE17B6B1B7C002B40F0D5
:1037B000098197F82B30403B112B00F2FF8001A2CA
:1037C00052F823F00D380008293800084538000861
:1037D00061380008BD390008BD390008BD3900084E
:1037E000BD390008BD390008BD390008BD390008E1
:1037F000BD390008BD390008BD390008BD390008D1
:10380000BD390008BD390008C1380008FB6A013322
:1038100007F1180210461946042206F023FEBA6981
:103820007B6B5A6100BFCCE0FB6A013307F11402E5
:1038300010461946042206F015FE7A697B6B9A61E0
:1038400000BFBEE0FB6A013307F1100210461946C3
:10385000042206F007FE3A697B6BDA6100BFB0E034
:10386000FB6A013307F10C0210461946042206F0E8
:10387000F9FDFA687B6B1A627B6B5A687B6B9B69FC
:103880009A421BD17B6B9A687B6BDB699A4215D19C
:103890007B6BDA687B6B1B6A9A420FD17B6B1A6871
:1038A0007B6B5B699A4209D17B6B01221A747B6B3B
:1038B00097F82B2083F848200123FB6300BF80E0AA
:1038C0007B6BDB6B1B78FF2B7AD17B6B93F84030E3
:1038D000FF2B75D1FB6A5B7987F82930FB6A9B79EE
:1038E00087F82830FB6ADB7987F8273097F829308A
:1038F0001F2B03D997F82930802B62D197F82830F5
:10390000032B5ED897F82730032B5AD8FB6A013374
:1039100007F1080210461946042206F0A3FDBB6811
:103920003B620023BB6397F82930802B0DD1012324
:10393000BB637B6B002283F834207B6B24331846F7
:103940000021102206F0B4FD2CE07B6B93F834309C
:1039500097F828209A4225D197F829304FF0FF3266
:1039600002FA03F3FB6197F828207B6B53F82220BF
:103970003B6A5A40FB691340002B13D10123BB6300
:103980007B6B97F8272083F8342097F82930002B99
:1039900008D197F8272097F828309A4202D27B6BFB
:1039A00001221A74BB6B002B07D07B6B97F82B207E
:1039B00083F848200123FB6302E001E000BF0FE031
:1039C00000BF0DE07B6B49331846F96A082206F008
:1039D00049FD7B6B97F82B2083F848200123FB637C
:1039E000FB6B002B02D07B6B01225A644037BD4633
:1039F00080BD00BF80B58AB004AFF860B9607A605E
:103A00003B600023FB75FB68002B19D07B68002B03
:103A100016D03B68002B13D03B6A002B10D0FB6AFA
:103A2000002B0DD03B681B78002B05D03B681B7822
:103A3000DBB25BB2002B05DA3B681B78FF2B01D0B1
:103A4000FF2345E0F8680021742206F031FDFB6891
:103A50001846B968102206F005FDFB6800221A74AA
:103A6000FB68002283F83420FB687A689A63FB685D
:103A70003A68DA633B681A78FB6883F84020FB6891
:103A800000225A64B98C3A8D00230093FB6801939D
:103A9000124B0293386A40F2FF7306F07BF803463C
:103AA000FB75FB68FA6ADA66398EBA8E08230093D2
:103AB00000230193F86A002306F0BEF80246FB6873
:103AC0001A67FB681B6F002B01D1FF23FB75FB7D81
:103AD0005BB218461837BD4680BD00BF05370008E9
:103AE00080B58CB000AF78600023FB627B685B6CB4
:103AF000002B00F01E8200237B627B681B6F053366
:103B000018460021082206F0D3FC7B6893F8483061
:103B1000043B5A2B00F2FE8101A252F823F000BFB1
:103B20008D3C0008153F0008153F0008153F0008B0
:103B3000153F0008153F0008153F0008153F000815
:103B4000153F0008153F0008153F0008153F000805
:103B5000153F0008A13C0008153F0008F93C00088B
:103B6000153F0008A33D0008153F0008E33D00088D
:103B7000153F0008153F0008153F0008153F0008D5
:103B8000153F0008153F0008153F0008153F0008C5
:103B9000153F0008153F0008153F0008153F0008B5
:103BA000153F0008153F0008153F0008153F0008A5
:103BB000153F0008153F0008153F0008153F000895
:103BC000153F0008153F0008153F0008153F000885
:103BD000153F0008153F0008153F0008153F000875
:103BE000153F0008153F0008153F0008153F000865
:103BF000153F0008153F0008153F0008153F000855
:103C0000153F0008153F0008153F0008153F000844
:103C1000153F0008153F0008153F0008933C0008B9
:103C2000153F0008153F0008153F0008153F000824
:103C3000153F0008153F0008153F0008153F000814
:103C4000153F0008153F0008153F0008153F000804
:103C5000153F0008073F0008153F0008153F000802
:103C6000153F0008153F0008153F0008153F0008E4
:103C7000153F0008153F0008393E0008653E000862
:103C8000913E0008BD3E0008E93E00080123FB62AA
:103C900041E17B681B6F44225A7101237B623AE148
:103CA0007B6893F84A3087F82330002387F82B305D
:103CB00097F82330002B04D097F823305BB2002B09
:103CC00003DA97F82330FF2B05D17B68DB6B97F87D
:103CD00023201A7002E0012387F82B307B681B6FCA
:103CE0007A6892F848205A717B681B6F97F82B20EE
:103CF0009A7101237B620EE17B685B6D002B00D122
:103D000009E17B6893F84A3087F822307B6893F8A2
:103D10004B3087F82130002387F82B30002387F8B9
:103D20002A3097F82230002B25D197F82130052B27
:103D300021D097F82130092B1DD897F821307F4AE0
:103D400032F81330FB837B685B6D7A68916DFA8B78
:103D5000084611469847B861BB69002B04D07B68C0
:103D60009B6BFA8B1A8009E0FF2387F82B30012325
:103D700087F82A3002E0012387F82B307B681B6F1D
:103D80007A6892F848205A717B681B6F97F82B204D
:103D90009A717B681B6F97F82A20DA7101237B6286
:103DA000B9E07B685B6D002B00D1B4E07B68DB6D14
:103DB000002B15D07B6893F84B309BB21B02FB8223
:103DC0007B6893F84A309AB2FB8A1343FB827B6884
:103DD000DB6D7A68116EFA8A0846114698479AE0B8
:103DE00099E0002387F82B307B685B6E002B03D1B2
:103DF000012387F82B3011E07B685B6E7A68906E48
:103E00007A68D26B11787A68926B12889847386119
:103E10003B69002B02D1022387F82B307B681B6F94
:103E20007A6892F848205A717B681B6F97F82B20AC
:103E30009A7101237B626EE07B681B6F7A6892F84F
:103E400048205A717B681B68FB607B681B6F9A1D5A
:103E500007F10C0310461946042206F003FB012368
:103E60007B6258E07B681B6F7A6892F848205A7131
:103E70007B685B68FB607B681B6F9A1D07F10C0316
:103E800010461946042206F0EDFA01237B6242E057
:103E90007B681B6F7A6892F848205A717B689B6830
:103EA000FB607B681B6F9A1D07F10C0310461946D7
:103EB000042206F0D7FA01237B622CE07B681B6F9B
:103EC0007A6892F848205A717B68DB68FB607B68EF
:103ED0001B6F9A1D07F10C0310461946042206F0C9
:103EE000C1FA01237B6216E07B681B6F7A6892F847
:103EF00048205A717B681B6F7A6892F840209A714B
:103F000001237B6207E07B681B6F4F225A710123FC
:103F10007B6200E000BF7B6A002B07D07B68DA6E13
:103F20007B681B6F1046194605F0BCFE7B680022BB
:103F30005A64FB6A18463037BD4680BD3CA800086D
:103F400080B584B000AF78600023FB737B68002BE2
:103F500001D1FF2305E0786800210C2206F0A8FAC1
:103F6000FB7B5BB218461037BD4680BD80B489B07C
:103F700000AFF860B9603B601346FB710023FB772C
:103F80000023BB770023BB61FB681A68BB681A4437
:103F9000FB681A60FCE0FB685B7A03F00103002B0E
:103FA0000CBF01230023DBB23B610123BB61FB6833
:103FB0001B68A3F54343503BFA681360FB681B7909
:103FC0000133DAB2FB681A71FB681B79032B40F2EC
:103FD000C980FB6800221A710023BB77BB7FFB7787
:103FE000FB685B7A03F00203002B04D1FB7F43F0F4
:103FF0000203FB7703E0BB7F43F00203BB77FB6860
:104000005B790133DAB2FB685A71FB685B79022B8A
:1040100009D0062B0CD0012B00D00DE0FB7F43F024
:104020000403FB7708E0BB7F43F00403BB7703E0A6
:10403000FB6800225A7100BFFB689B790133DAB23A
:10404000FB689A71FB689B79013B072B20D801A282
:1040500052F823F0754000087F40000875400008C2
:104060007F400008914000089140000891400008FE
:1040700089400008FB7F43F00803FB7709E0BB7F22
:1040800043F00803BB7704E0FB6800229A7100E06C
:1040900000BFFB68DB790133DAB2FB68DA71FB68D9
:1040A000DB79013B092B25D801A252F823F000BF90
:1040B000D9400008E3400008D9400008E340000868
:1040C000D9400008E3400008F5400008F54000082A
:1040D000F5400008ED400008FB7F43F01003FB773C
:1040E00009E0BB7F43F01003BB7704E0FB680022CC
:1040F000DA7100E000BFFB681B7A0133DAB2FB68BB
:104100001A72FB681B7A013B0B2B29D801A252F8CB
:1041100023F000BF454100084F4100084541000819
:104120004F410008454100084F4100084541000843
:104130004F410008614100086141000861410008E9
:1041400059410008FB7F43F02003FB7709E0BB7F68
:1041500043F02003BB7704E0FB6800221A7200E002
:1041600000BF09E0FB685B7A03F07E03FB77FB6826
:104170009B7A03F07E03BB773B69002B04D0FB7F67
:1041800043F00103FB7703E0BB7F43F00103BB7700
:10419000FB681B684CF24F3293423FF6FCAEBB69A2
:1041A000002B77D0BB6A002B02D00123FB7532E0D5
:1041B00097F90730002B04D1FB7F03F00103FB7557
:1041C00029E03B6B002B04D0FB7F03F02003FB7541
:1041D00021E07B6B002B04D0FB7F03F01003FB7509
:1041E00019E0BB6B002B04D0FB7F03F00803FB75C9
:1041F00011E0FB6A002B04D0FB7F03F00403FB7586
:1042000009E0FB6B002B04D0FB7F03F00203FB757E
:1042100001E00023FB753B68002B04D0BB7F03F05B
:104220000103BB7522E03B6C002B04D0BB7F03F085
:104230001003BB751AE097F90730042B04D1BB7F3C
:1042400003F00403BB7511E097F907307F2B04D10D
:10425000BB7F03F00203BB7508E097F90730052B1D
:1042600002D10123BB7501E00023BB75FB7D002B50
:1042700003D0FB7F63F07F03FB77BB7D002B03D074
:10428000BB7F63F07F03BB77FB68FA7F5A72FB68E2
:10429000BA7F9A722437BD465DF8047B704700BF31
:1042A00080B485B000AF78607B681B78FB73FB7BC4
:1042B00018461437BD465DF8047B704780B483B060
:1042C00000AF78600B46FB70FA787B681A700123A8
:1042D00018460C37BD465DF8047B704780B582B048
:1042E00000AF786039603B4678681946042206F0D2
:1042F000C4F8042318460837BD4680BD80B483B097
:1043000000AF78607B68002B02D07B681B8800E0E0
:10431000002318460C37BD465DF8047B704700BF8C
:1043200080B483B000AF786039607B68002B01D126
:10433000052303E07B683A689A6000235BB2184665
:104340000C37BD465DF8047B704700BF80B586B072
:1043500002AFF8607A603B600B46FB72FA7A3B680A
:104360000093F86811467A68042301F04FFB034676
:1043700018461037BD4680BD80B586B000AFF860E6
:10438000B9607A603B60FB68002B0CD0FB685B7CFB
:10439000002B08D1BB68002B05D07B68032B02D90A
:1043A0003B68002B01D109231BE0FB685B687B6144
:1043B0007B695B6A002B01D0002301E04FF00043D2
:1043C0003B617B6993F8283080331A463B6913437D
:1043D0003B61B8683969FFF781FF3B6804221A60C6
:1043E00000235BB218461837BD4680BD80B586B045
:1043F00000AFF860B9607A603B60FB68002B0FD0BB
:10440000BB68002B0CD03B68002B09D07B68032BCA
:1044100003D8FB685B7C002B02D17B68002B01D1A9
:1044200009234DE0FB685B683B613B691B7F012B07
:1044300001D8092344E0FB685B7C002B0BD13B696E
:1044400093F82030B8681946FFF738FF3B6801221F
:104450001A60002334E0FB685A7C3B6993F82030F3
:104460009A422CD83B695B7F9AB2FB685B7C9BB21B
:10447000D31A9BB2FB82B7F91630002B07DA3B69DF
:104480001B7F9AB2FB8A13449BB2FB8207E0B7F909
:1044900016303A69127F934201DB092310E03B6931
:1044A0009A69B7F91630DB0013441B68B8681946DF
:1044B000FFF714FF3B6804221A60002300E0192371
:1044C0005BB218461837BD4680BD00BF80B586B0C8
:1044D00000AFF860B9607A603B60FB68002B0CD0DD
:1044E000FB685B7C002B08D1BB68002B05D07B6888
:1044F000012B02D13B68002B01D1092312E0B868DF
:10450000FFF7CEFE0346002B01D00F230AE0FB6825
:104510005B687B617B69002283F820203B68012275
:104520001A6000235BB218461837BD4680BD00BF35
:1045300080B588B002AFF860B9607A603B60002354
:10454000FB75FB68002B1BD07B68002B18D03B68E9
:10455000002B03D197F82030012B11D87B6A002B58
:104560000ED0BB68002B0BD097F83030002B07D053
:1045700097F830305BB2002B02DBFB6A002B01D1D5
:10458000FF23A3E0F8680021502205F091FFFB68AB
:10459000BA685A61786800210122002301F0A4FA68
:1045A0000246FB68DA60FB68DB68002B0BD17B6B93
:1045B000002B06D07868FFF7A1FE03461A467B6BF6
:1045C0001A60F42382E0FB68DB6800221A70FB6843
:1045D0003A689A61FB6897F820201A7707F1100370
:1045E000786A00211A460123FFF7B0FE0346BB7527
:1045F00097F91630002B04D13A69374B1340002B42
:104600000FD07B6B002B06D0786AFFF777FE03464E
:104610001A467B6B1A6097F91630002B01D0F423F1
:1046200054E097F830309BB28033BB823B69DB4368
:10463000DB0FDBB21A46FB685A62FB68FA681A6342
:10464000FB68264A5A63FB68254A9A63FB68303345
:10465000786A1946FFF764FE0346BB7597F9163072
:10466000002B0BD07B6B002B06D0786AFFF746FE41
:1046700003461A467B6B1A60F42327E0FB6897F821
:10468000302083F82820398DBA8A0823009300232C
:104690000193B868002305F0CFFA0246FB68DA629E
:1046A000FB68DB6A002B01D1FF230FE0FB68FA688F
:1046B0001A64FB680B4A5A64FB680B4A9A64FB68ED
:1046C0004033F86A1946FFF72BFEFB7D5BB21846B4
:1046D0001837BD4680BD00BF00F8FF7F7943000852
:1046E0003D560008ED430008CD44000880B588B071
:1046F00002AFF860B9607A603B60FB685B695B8A17
:10470000BB82FB681B8ABA8A9A4200F0A980FB68C8
:104710001A8ABB8A53407B82FB68BA8A1A827A8AD9
:1047200040F201131340002B11D0BA8A40F201135A
:104730001340002B14BF01230023DBB21A460023D1
:104740000093F86811460122002300F01FF97B8ACC
:1047500003F00203002B11D0BB8A03F00203002BED
:1047600014BF01230023DBB21A4600230093F8682C
:104770001146072248F2201300F008F97B8A03F063
:104780000403002B11D0BB8A03F00403002B14BFD9
:1047900001230023DBB21A4600230093F868114678
:1047A000122248F2401300F0F1F87B8A03F008036C
:1047B000002B11D0BB8A03F00803002B14BF012388
:1047C0000023DBB21A4600230093F8681146142236
:1047D00048F2101300F0DAF87B8A03F08003002B14
:1047E00011D0BB8A03F08003002B14BF01230023E8
:1047F000DBB21A4600230093F868114615224FF4E5
:10480000014300F0C3F87B8A03F40073002B11D03E
:10481000BB8A03F40073002B14BF01230023DBB217
:104820001A4600230093F8681146062248F2201326
:1048300000F0ACF87B8A03F40063002B10D0BB8A35
:1048400003F40063002B14BF01230023DBB21A46DC
:1048500000230093F86811461322132300F096F802
:104860000023FB75FB685B79002B03D0FB7D43F0D5
:104870000103FB75FB689B78002B03D1FB68DB7899
:10488000002B03D0FB7D43F01003FB75FB681B7A04
:10489000002B03D1FB685B7A002B03D0FB7D63F018
:1048A0007F03FB75FB68DB68FA7D1A70BB68002B21
:1048B00000D168E0FB681B7F012B63D9FB689B7FFD
:1048C0007B74FB685B7F7A7C9A425BD0FB68DB6A17
:1048D0001B69002B56D1FB689A697B7CDB00134473
:1048E000FA6891697A7CD2000A441168FA7D120450
:1048F0000A431A60FB68DB6A591DFB689A697B7C76
:10490000DB00134408461946082205F0ABFDFB689E
:104910005A69FB68DB6A1046194605F0C3F97B7CCF
:1049200001337B74FB681B7F7A7C9A4201D27A7CCC
:1049300000E00022FB689A77FB68DB7F012B0CD13B
:10494000FB680222DA7700230093F8680121202215
:104950004FF4805300F01AF814E0FB68DB7F022B61
:1049600010D1FB689A7FFB685B7F9A420AD1FB6893
:104970000022DA7700230093F86800212022002328
:1049800000F004F800BF1837BD4680BD80B48BB07E
:1049900000AFF860B96011461A460B46FB7113462A
:1049A000BB80FB68002B00D192E0FB79DB0887F825
:1049B0002730FB7903F00703012202FA03F387F89B
:1049C000263097F82730092B0AD9052387F8273096
:1049D000012387F826304FF4C243BB80FB793B6349
:1049E00097F82730FA6813443B623B6A1A7897F8C5
:1049F00026301340FB77BB68002B03D0FB7F002BD6
:104A000006D065E0FB7F002B00D161E00023BB8076
:104A1000FB791A06BB881343BB613B6B7B61BB68A8
:104A2000002B08D03B6A1A7897F826301343DAB285
:104A30003B6A1A700BE03B6A1B78DAB297F82630B3
:104A4000DB43DBB21340DBB2DAB23B6A1A70FB68BD
:104A50001B7F012B3CD9FB685B7FFB74FB7C013324
:104A600087F82530FB681B7F97F825209A4202D3F0
:104A7000002387F82530FB689B7F97F825209A4212
:104A800003D1FB680122DA7722E0FB689A69FB7C9C
:104A9000DB001344BA691A60FB689A69FB7CDB008F
:104AA00013447A695A60FB6897F825205A77FB68A7
:104AB00093F820301A46FB681B7F013B9A4207DAC5
:104AC000FB6893F820300133DAB2FB6883F82020CA
:104AD0002C37BD465DF8047B704700BF80B584B0BD
:104AE00000AF786007F10C0318467968042205F0DE
:104AF000C4FCFB6818461037BD4680BD80B483B047
:104B000000AF78607B68002B02D07B681B8800E0D8
:104B1000002318460C37BD465DF8047B704700BF84
:104B200080B483B000AF786039607B68002B01D11E
:104B3000052303E07B683A689A6000235BB218465D
:104B40000C37BD465DF8047B704700BF80B586B06A
:104B500002AFF8607A603B600B46FB72FA7A3B6802
:104B60000093F86811467A68042300F04FFF03466B
:104B700018461037BD4680BD80B487B000AF78605E
:104B800039607B687B613B681B79FB743B6805334C
:104B9000FB60FB7C012B07D1FB681B78DAB27B69D9
:104BA0005A707B690122DA601C37BD465DF8047BD0
:104BB000704700BF80B588B000AFF860B9607A6018
:104BC0003B60FB685B68FB61FB68002B12D0BB6835
:104BD000002B0FD0FB685B7C002B0BD0FB685A7C52
:104BE000FB691B7A9A4205D87B68042B02D13B688B
:104BF000002B01D1092320E0B868FFF76FFFB861EF
:104C0000BB691B0CFB75BB69BB82FB685B7C013B12
:104C1000D9B2FA7DBB8AF86900F0BCF80346FB7490
:104C200097F91330002B01D0082306E0F868B96823
:104C30007A683B6800F002FD03465BB218462037F5
:104C4000BD4680BD80B588B000AFF860B9607A60BD
:104C5000FB70FB68002B0BD0BB68002B08D07B6877
:104C6000002B05D0BB6A002B02D0FB6A002B01D1C0
:104C7000FF2386E0F8680021302205F019FCFB686C
:104C8000BA681A60FB687A685A60FB68FA6A9A61C7
:104C9000FB683A8E9A83FA78BB6A9B78013B934211
:104CA000A8BF1346DAB2FB681A720023FB7741E013
:104CB000FB7F0133DAB207F11403B86A11461A46D2
:104CC0000123FFF743FF0346BB7797F91E30002B04
:104CD0000BD07B6B002B06D0B86AFFF70FFF0346A3
:104CE0001A467B6B1A60F4234BE07B691B0C7B77C5
:104CF0007B697B83F97F7A7F7B8BF86800F04AF8C9
:104D000003467B7697F91930002B10D07B6B002B74
:104D100006D0B86AFFF7F2FE03461A467B6B1A60AC
:104D200097F9193013F10C0F01D07B7E29E0FB7F3E
:104D30000133FB77FB681B7AFA7F9A42B8D3FB6892
:104D4000FA681A62FB68114A5A62FB68104A9A6252
:104D5000FB682033B86A1946FFF7E2FE0346BB77CB
:104D600097F91E30002B0BD07B6B002B06D0B86A56
:104D7000FFF7C4FE03461A467B6B1A60F42300E07B
:104D800000235BB218462037BD4680BD8D55000814
:104D9000B54B000890B58DB004AF78600846114659
:104DA0001A460346FB700B46BB7013463B8000233C
:104DB000FB777B68002B04D07B681B7AFA789A42D9
:104DC00001D3FF2377E03B88002B24D0BB78002B56
:104DD00021D00023BB7719E07B685A68BB7F1B0199
:104DE000134407F108040FCB84E80F00FA78BB7F67
:104DF0009A4208D03B69002B05D03B7ABA789A4298
:104E000001D1F423FB77BB7F0133BB777B681B7A2F
:104E1000BA7F9A42E0D397F91F30002B4AD17B68C2
:104E20005A68FB781B011344BB61BB69BA781A70DE
:104E30003B884FF47A7202FB03F31A46BB699A600F
:104E4000BB69FF225A70BB690022DA60BB691B781C
:104E5000002B0DD0BB699B68002B09D0BB691B7868
:104E60009BB203F5E063BB83BB6901229A7007E044
:104E70000023BB83BB6900229A60BB6900229A7041
:104E80007B6898697B689A8BFB789BB2134499B2D4
:104E90007B685A68FB781B011344BC8B002200928C
:104EA0000193074B0293224640F2FF7304F072FE17
:104EB0000346FB77FB7F5BB218462437BD4690BDA7
:104EC000794B000880B58EB002AFF860B9607A60A7
:104ED0003B600123FB620123BB62BB68002B77D0E0
:104EE000FB685B69002B73D0002387F8273068E0EC
:104EF0007B683B62FB685A6897F827301B011344B4
:104F0000BB61BB699B78002B00D155E0BB69DB68B6
:104F1000002B22D0BB695B78002B13D1BB699B7837
:104F2000022B0BD1FB681A6897F8273000931046C4
:104F300001211C2248F23013FFF728FDBB69012232
:104F40009A7007E0BB6902229A70BB6900225A601E
:104F500000233B62BB690022DA60BB699B78022BAD
:104F60001DD1BB695A683B6A1A44BB695A60BB6968
:104F70005A68BB699B689A4211D3FB681A6897F814
:104F800027300093104601211B2248F23013FFF70F
:104F9000FDFCBB69FF225A70BB6903229A70BB6992
:104FA0009B78022B01D00023FB62BB695B785BB26C
:104FB000052B01D00023BB6297F82730013387F817
:104FC0002730FB681B7A97F827209A4290D328E075
:104FD000BB68002B03D1FB685B69002B21D0002349
:104FE000FB7715E0FB685A68FB7F1B0113447B616C
:104FF0007B69FF225A707B690022DA607B699B78AB
:10500000002B02D07B6901229A70FB7F0133FB7772
:10501000FB681B7AFA7F9A42E4D30023FB620023E9
:10502000BB62FB68DB68002B16D1FB6A002B13D038
:10503000FB681A6800230093104600211B220023FE
:10504000FFF7A4FCFB681A680023009310460021B8
:105050001C220023FFF79AFCFB68FA6ADA60FB68FF
:10506000BA6A1A61FB68BA685A613037BD4680BDBA
:1050700080B584B000AF786007F10E0318467968F8
:10508000022205F0FAF9FB8918461037BD4680BDAB
:1050900080B483B000AF78607B68002B02D07B685F
:1050A0001B8800E0002318460C37BD465DF8047BE2
:1050B000704700BF80B483B000AF786039607B6810
:1050C000002B01D1052303E07B683A689A60002336
:1050D0005BB218460C37BD465DF8047B704700BFD5
:1050E00080B586B002AFF8607A603B600B46FB7219
:1050F000FA7A3B680093F86811467A68022300F058
:1051000085FC034618461037BD4680BD80B485B087
:1051100000AF78600B46FB70FB78DB08FB73FB7815
:1051200003F00703012202FA03F3BB737B68002B31
:105130000AD0FB7B092B07D8FB7B7A68D25CBB7B50
:105140001340DBB2002B01D0012300E000231846FE
:105150001437BD465DF8047B704700BF80B483B050
:1051600000AF78607B68002B07D07B68DB68002B82
:1051700003D07B68DB681B7800E0002318460C37FF
:10518000BD465DF8047B704780B487B000AF78609F
:1051900039603B681B79FB753B6805333B613B69B4
:1051A0001B78FB733B695B78BB737B68BB60FB7DE3
:1051B000022B0AD1BB7B002B04D0BB68DB78BA7B07
:1051C0009A4202D1BB68FA7B9A701C37BD465DF8E3
:1051D000047B704780B586B000AFF860B9607A6034
:1051E0003B60FB68002B0CD0FB685B7C002B08D17C
:1051F000BB68002B05D07B68022B02D13B68002BDB
:1052000001D1092317E0FB685B687B61B868FFF791
:105210002FFF03461A464FF47A7303FB02F27B69B1
:105220009A607B690022DA60F868B9687A683B683E
:1052300000F004FA03465BB218461837BD4680BD3D
:1052400080B58AB004AFF860B9607A60FB70002363
:10525000FB75FB68002B0BD0BB68002B08D07B686C
:10526000002B05D0BB6A002B02D07B6B002B01D139
:10527000FF2394E0F86800212C2205F019F9FB685F
:1052800000221A70FB6800225A70FB68FA78DA7004
:10529000FB683A8C9A80FB687A681A62BB8C4FF480
:1052A0007A7202FB03F31A46FB68DA6007F1140313
:1052B000B86800211A460123FFF712FF0346BB75A9
:1052C00097F91630002B0BD03B6C002B06D0B8683A
:1052D000FFF7DEFE03461A463B6C1A60F4235EE0DD
:1052E000BB8A1A464FF47A7303FB02F2FB689A609A
:1052F000FB68FA681A61FB682B4A5A61FB682B4A03
:105300009A61FB681033B8681946FFF7D3FE03466D
:10531000BB7597F91630002B0BD03B6C002B06D0D9
:10532000B868FFF7B5FE03461A463B6C1A60F423D3
:1053300035E0FB68DA68FB689B689A4203D9FB6832
:105340009A68FB68DA60B98D3A8E00230093FB6897
:105350000193174B0293B86A40F2FF7304F01AFCF2
:105360000346FB7597F91730002B01D0FB7D16E043
:10537000FB687A6B5A62398FBA8F0123009300233E
:105380000193786B002304F057FC0246FB689A6295
:10539000FB689B6A002B01D1FF2300E0FB7D5BB221
:1053A00018461837BD4680BD8D550008D5510008F8
:1053B0008951000880B588B000AFF860B9607A60A4
:1053C0003B60FB681B78FB770023BB7797F91F30A6
:1053D000002B0CBF01230023DBB2BB61FB68DA6842
:1053E0007B689A4204D9FB68DA687B68D31A00E0CC
:1053F0000023FA68D360BB69002B0ED1FB689B6861
:10540000002B29D0FB68DB68002B06D0FB685B789B
:1054100097F91F205BB29A421ED0FB689B6AFA7F05
:105420005A71FB685A6AFB689B6A1046194604F079
:1054300039FC97F91F30002B0AD1FB689B8803F4D5
:105440008073002B01D0052300E07F23FB7703E06E
:10545000FB689A68FB68DA60FB68FA7F5A70FB6841
:105460009B78002B21D0FB689B78802B11D0802B60
:1054700004DC012B07D0022B08D013E0812B0BD0CA
:10548000822B0CD00EE00523FB770BE00423FB7787
:1054900008E07F23FB7705E00223BB7702E00123CE
:1054A000BB7700BFFB6800229A70FB689B8803F4FF
:1054B0008053002B1CD0FB681B6A18461221FFF793
:1054C00025FE0346002B11D1FB681B6A18461B21E1
:1054D000FFF71CFE0346002B08D1FB681B6A184629
:1054E0001C21FFF713FE0346002B01D0012300E02F
:1054F00000237B61FB689B8803F40053002B0DD0D5
:10550000FB681B6A1846FFF729FE03461A46FB682C
:105510009B881340002B01D0012300E000233B6156
:1055200097F91F30052B10D17B69002B02D13B6905
:10553000002B0AD0FB689B8803F48043002B01D02A
:10554000042300E07F23FB7711E0FB689B889BB27C
:105550001BB2002B0BDA97F91F307F2B07D17B6929
:10556000002B04D13B69002B01D10523FB77FB689D
:10557000FA7F1A70BB68002B02D0BB68FA7F1A70E2
:10558000BB7F18462037BD4680BD00BF80B588B0C0
:1055900000AFF860B9607A603B60FB68002B05D013
:1055A000BB68002B02D03B68002B01D1092340E0EF
:1055B000FB689B68FB61FB681B68BB61BB69002BD8
:1055C00001D10E2335E00023FB75FB68DB68002B5F
:1055D00003D1FA697B689A4222D9FB68DA68FB69D1
:1055E0009A4201D3092324E0FB68DB68FA69D31AE5
:1055F000FB61FB68DB68BA691344BB61FA697B68CD
:105600009A420AD97B68FB61FB68DA68FB691A4435
:10561000FB68DA60FF23FB7502E0FB680022DA60BA
:10562000B868B969FA6904F01DFF3B68FA691A6045
:10563000FB7D5BB218462037BD4680BD80B588B083
:1056400000AFF860B9607A603B60FB68002B05D062
:10565000BB68002B02D03B68002B01D1092346E038
:10566000FB689B68FB61FB681B68BB61BB69002B27
:1056700001D10E233BE00023FB75FB68DB68002BA8
:1056800003D1FA697B689A4222D9FB68DA68FB6920
:105690009A4201D309232AE0FB68DB68FA69D31A2E
:1056A000FB61FB68DB68BA691344BB61FA697B681C
:1056B0009A420AD97B68FB61FB68DA68FB691A4485
:1056C000FB68DA60FF23FB7502E0FB680022DA600A
:1056D000FA697B689A4201D20C2308E0B869B9687C
:1056E000FA6904F0BFFE3B68FA691A60FB7D5BB2A1
:1056F00018462037BD4680BD80B485B000AFF86045
:10570000B9607A603B6002235BB218461437BD462D
:105710005DF8047B704700BF80B485B000AFF860CF
:10572000B9607A603B6002235BB218461437BD460D
:105730005DF8047B704700BF80B487B000AF78602D
:105740000B467B807B68002B03D07B681B88002B7B
:1057500001D1002346E00023FB827B681B88013BCC
:10576000BB8226E0FA8ABB8A13445B107B827B688B
:1057700059687A8A13465B0013449B000B44FB6014
:10578000FB681B887A889A4201D1FB682AE0FB6893
:105790001B887A889A4209D27B8A002B03D07B8AA5
:1057A000013B9BB200E07B8ABB8202E07B8A013333
:1057B000FB82FA8ABB8A9A42D4D3FA8ABB8A9A427B
:1057C0000FD17B685968FA8A13465B0013449B002B
:1057D0000B44BB60BB681B887A889A4201D1BB68C6
:1057E00000E0002318461C37BD465DF8047B704777
:1057F00080B48DB000AFF8607A603B600B46FB72FE
:10580000FB68002B03D0FB685B68002B01D10523EC
:10581000CFE07B68002B01D10923CAE07B687B6263
:10582000FB68DB7803F00F03022B19D0032B4BD05E
:10583000012B40F08780FB7A002B01D00E23B8E0CB
:10584000FB685B683B623B6A1A797B6A1A743B6A45
:105850001A687B6A1A603B6A9A687B6A9A6073E08E
:10586000FB689B78FA7A9A4201D30E23A1E0FB6889
:105870005B68FB61FB7A002B0BD1FB691A7A7B6AB0
:105880001A74FB691A687B6A1A607B6A01229A6043
:105890005AE0FB695A7A7B6A1A74FB695B68BB61E0
:1058A000BB69002B08D0FB691B69FA7A013A02FB3D
:1058B00003F3BA69134400E0BB697A6A1360FB69B9
:1058C000DA687B6A9A603FE0FB685B687B61002373
:1058D000FB62002387F82B301CE097F82B2013463F
:1058E0005B0013449B001A467B6913441B79FA7AC8
:1058F0009A420AD197F82B2013465B0013449B0071
:105900001A467B691344FB620AE097F82B30013397
:1059100087F82B30FB689B7897F82B209A42DCD3D2
:10592000FB6A002B01D10E2343E0FB6A5A797B6AA4
:105930001A74FB6A1A687B6A1A60FB6A9A687B6A47
:105940009A6001E0092334E0FB689B68002B02D0D9
:105950003B68002B09D07B68194A5A617B68194A59
:105960009A617B6A00225A601CE0FB689B685B6856
:10597000002B03D0FB689B685B6800E0124B7A68E1
:105980005361FB689B689B68002B03D0FB689B6896
:105990009B6800E00D4B7A689361FB689B681A680E
:1059A0007B6A5A607B6A0022DA607B6AFA7A5A74F0
:1059B00000235BB218463437BD465DF8047B704760
:1059C0008D5500083D560008F95600081957000883
:1059D00080B483B000AF0346FB7197F90730002B0A
:1059E00003DB97F90730192B01DD064B04E097F92B
:1059F0000730054A52F8233018460C37BD465DF88B
:105A0000047B70474700040650A8000890B58FB08B
:105A100000AFF8607A603B600B46FB727B68002B3E
:105A200001D1092326E007F114037B6300233B61C6
:105A3000FA7A07F11403F86811461A46BB6CFFF7AF
:105A4000D7FE034687F8333097F93330002B02D066
:105A500097F833300EE07B6B9A683B689A4201D02E
:105A60000B2307E0BC6A07F11003786B79683A688A
:105A7000A04703465BB218463C37BD4690BD00BF09
:105A800090B58FB000AFF8607A603B600B46FB7258
:105A900007F114037B6300233B61FA7A07F11403D7
:105AA000F86811461A46BB6CFFF7A2FE034687F85A
:105AB000333097F93330002B02D097F833300EE0B3
:105AC0007B6B9A683B689A4201D00B2307E0FC6A23
:105AD00007F11003786B79683A68A04703465BB218
